{"abi":[{"type":"function","name":"claim","inputs":[{"name":"message","type":"bytes32","internalType":"bytes32"},{"name":"v","type":"uint8","internalType":"uint8"},{"name":"r","type":"bytes32","internalType":"bytes32"},{"name":"s","type":"bytes32","internalType":"bytes32"}],"outputs":[],"stateMutability":"nonpayable"},{"type":"function","name":"hasClaimed","inputs":[{"name":"","type":"address","internalType":"address"}],"outputs":[{"name":"","type":"bool","internalType":"bool"}],"stateMutability":"view"}],"bytecode":{"object":"0x6080604052348015600f57600080fd5b506102558061001f6000396000f3fe608060405234801561001057600080fd5b50600436106100365760003560e01c806309c8d1731461003b57806373b2e80e14610050575b600080fd5b61004e6100493660046101ac565b610087565b005b61007361005e3660046101ef565b60006020819052908152604090205460ff1681565b604051901515815260200160405180910390f35b3360009081526020819052604090205460ff16156100de5760405162461bcd60e51b815260206004820152600f60248201526e105b1c9958591e4818db185a5b5959608a1b60448201526064015b60405180910390fd5b6040805160008082526020820180845287905260ff861692820192909252606081018490526080810183905260019060a0016020604051602081039080840390855afa158015610132573d6000803e3d6000fd5b5050604051601f1901519150506001600160a01b038116331461018b5760405162461bcd60e51b8152602060048201526011602482015270496e76616c6964207369676e617475726560781b60448201526064016100d5565b5050336000908152602081905260409020805460ff19166001179055505050565b600080600080608085870312156101c257600080fd5b84359350602085013560ff811681146101da57600080fd5b93969395505050506040820135916060013590565b60006020828403121561020157600080fd5b81356001600160a01b038116811461021857600080fd5b939250505056fea2646970667358221220b794c75ef589564182af91f4e601b9625a2585cc58a95551d78cbc2ace85450e64736f6c634300081b0033","linkReferences":{}},"methodIdentifiers":{"claim(bytes32,uint8,bytes32,bytes32)":"09c8d173","hasClaimed(address)":"73b2e80e"},"id":21}