{"abi":[{"type":"constructor","inputs":[],"stateMutability":"nonpayable"},{"type":"function","name":"chainId","inputs":[],"outputs":[{"name":"","type":"uint256","internalType":"uint256"}],"stateMutability":"view"},{"type":"function","name":"claim","inputs":[{"name":"rawMessage","type":"bytes32","internalType":"bytes32"},{"name":"v","type":"uint8","internalType":"uint8"},{"name":"r","type":"bytes32","internalType":"bytes32"},{"name":"s","type":"bytes32","internalType":"bytes32"}],"outputs":[],"stateMutability":"nonpayable"},{"type":"function","name":"hasClaimed","inputs":[{"name":"","type":"address","internalType":"address"}],"outputs":[{"name":"","type":"bool","internalType":"bool"}],"stateMutability":"view"}],"bytecode":{"object":"0x60a0604052348015600f57600080fd5b50466080526080516103f6610035600039600081816098015261012301526103f66000f3fe608060405234801561001057600080fd5b50600436106100415760003560e01c806309c8d1731461004657806373b2e80e1461005b5780639a8a059214610093575b600080fd5b61005961005436600461031b565b6100c8565b005b61007e61006936600461035e565b60006020819052908152604090205460ff1681565b60405190151581526020015b60405180910390f35b6100ba7f000000000000000000000000000000000000000000000000000000000000000081565b60405190815260200161008a565b3360009081526020819052604090205460ff161561011f5760405162461bcd60e51b815260206004820152600f60248201526e105b1c9958591e4818db185a5b5959608a1b60448201526064015b60405180910390fd5b60007f0000000000000000000000000000000000000000000000000000000000000000303360405160200161017d93929190928352606091821b6bffffffffffffffffffffffff199081166020850152911b16603482015260480190565b6040516020818303038152906040528051906020012090508085146101e45760405162461bcd60e51b815260206004820152601760248201527f496e76616c6964206d65737361676520636f6e74656e740000000000000000006044820152606401610116565b60006040518060400160405280601c81526020017f19457468657265756d205369676e6564204d6573736167653a0a33320000000081525090506000818760405160200161023392919061038e565b60408051601f198184030181528282528051602091820120600080855291840180845281905260ff8a169284019290925260608301889052608083018790529092509060019060a0016020604051602081039080840390855afa15801561029e573d6000803e3d6000fd5b5050604051601f1901519150506001600160a01b03811633146102f75760405162461bcd60e51b8152602060048201526011602482015270496e76616c6964207369676e617475726560781b6044820152606401610116565b5050336000908152602081905260409020805460ff19166001179055505050505050565b6000806000806080858703121561033157600080fd5b84359350602085013560ff8116811461034957600080fd5b93969395505050506040820135916060013590565b60006020828403121561037057600080fd5b81356001600160a01b038116811461038757600080fd5b9392505050565b6000835160005b818110156103af5760208187018101518583015201610395565b50919091019182525060200191905056fea2646970667358221220062b61acdd123f210d0c531be491911017b919c192b7df23757c07f152f72bcb64736f6c634300081b0033","linkReferences":{}},"methodIdentifiers":{"chainId()":"9a8a0592","claim(bytes32,uint8,bytes32,bytes32)":"09c8d173","hasClaimed(address)":"73b2e80e"},"id":19}