{"abi":[{"type":"constructor","inputs":[{"name":"_owner","type":"address","internalType":"address"}],"stateMutability":"nonpayable"},{"type":"receive","stateMutability":"payable"},{"type":"function","name":"chainId","inputs":[],"outputs":[{"name":"","type":"uint256","internalType":"uint256"}],"stateMutability":"view"},{"type":"function","name":"execute","inputs":[{"name":"target","type":"address","internalType":"address"},{"name":"value","type":"uint256","internalType":"uint256"},{"name":"data","type":"bytes","internalType":"bytes"},{"name":"v","type":"uint8","internalType":"uint8"},{"name":"r","type":"bytes32","internalType":"bytes32"},{"name":"s","type":"bytes32","internalType":"bytes32"}],"outputs":[{"name":"","type":"bytes","internalType":"bytes"}],"stateMutability":"payable"},{"type":"function","name":"nonce","inputs":[],"outputs":[{"name":"","type":"uint256","internalType":"uint256"}],"stateMutability":"view"},{"type":"function","name":"owner","inputs":[],"outputs":[{"name":"","type":"address","internalType":"address"}],"stateMutability":"view"}],"bytecode":{"object":"0x60a0604052348015600f57600080fd5b5060405161059d38038061059d833981016040819052602c916054565b600080546001600160a01b0319166001600160a01b0392909216919091179055466080526082565b600060208284031215606557600080fd5b81516001600160a01b0381168114607b57600080fd5b9392505050565b6080516104fa6100a36000396000818160c2015261013201526104fa6000f3fe6080604052600436106100435760003560e01c80636fc370df1461004f5780638da5cb5b146100785780639a8a0592146100b0578063affed0e0146100f257600080fd5b3661004a57005b600080fd5b61006261005d366004610309565b610108565b60405161006f91906103cb565b60405180910390f35b34801561008457600080fd5b50600054610098906001600160a01b031681565b6040516001600160a01b03909116815260200161006f565b3480156100bc57600080fd5b506100e47f000000000000000000000000000000000000000000000000000000000000000081565b60405190815260200161006f565b3480156100fe57600080fd5b506100e460015481565b60018054606091600091908261011d83610419565b9190505590506000601960f81b600060f81b307f0000000000000000000000000000000000000000000000000000000000000000858e8e8e8e60405160200161016e99989796959493929190610440565b60408051601f198184030181528282528051602091820120600080855291840180845281905260ff8a169284019290925260608301889052608083018790529092509060019060a0016020604051602081039080840390855afa1580156101d9573d6000803e3d6000fd5b5050604051601f1901516000549092506001600160a01b03808416911614905061023e5760405162461bcd60e51b8152602060048201526011602482015270496e76616c6964207369676e617475726560781b60448201526064015b60405180910390fd5b6000808c6001600160a01b03168c8c8c60405161025c9291906104b4565b60006040518083038185875af1925050503d8060008114610299576040519150601f19603f3d011682016040523d82523d6000602084013e61029e565b606091505b5091509150816102e35760405162461bcd60e51b815260206004820152601060248201526f115e1958dd5d1a5bdb8819985a5b195960821b6044820152606401610235565b9c9b505050505050505050505050565b803560ff8116811461030457600080fd5b919050565b600080600080600080600060c0888a03121561032457600080fd5b87356001600160a01b038116811461033b57600080fd5b965060208801359550604088013567ffffffffffffffff81111561035e57600080fd5b8801601f81018a1361036f57600080fd5b803567ffffffffffffffff81111561038657600080fd5b8a602082840101111561039857600080fd5b602091909101955093506103ae606089016102f3565b969995985093969295946080840135945060a09093013592915050565b602081526000825180602084015260005b818110156103f957602081860181015160408684010152016103dc565b506000604082850101526040601f19601f83011684010191505092915050565b60006001820161043957634e487b7160e01b600052601160045260246000fd5b5060010190565b60ff60f81b8a16815260ff60f81b891660018201526bffffffffffffffffffffffff198860601b1660028201528660168201528560368201526bffffffffffffffffffffffff198560601b16605682015283606a8201528183608a83013760009101608a0190815298975050505050505050565b818382376000910190815291905056fea26469706673582212208f17b0ec0056861c97cd492787167937634d0cda40916b9f7db6e001b36af5cc64736f6c634300081b0033","linkReferences":{}},"methodIdentifiers":{"chainId()":"9a8a0592","execute(address,uint256,bytes,uint8,bytes32,bytes32)":"6fc370df","nonce()":"affed0e0","owner()":"8da5cb5b"},"id":18}