{"abi":[{"type":"constructor","inputs":[],"stateMutability":"nonpayable"},{"type":"function","name":"chainId","inputs":[],"outputs":[{"name":"","type":"uint256","internalType":"uint256"}],"stateMutability":"view"},{"type":"function","name":"claim","inputs":[{"name":"rawMessage","type":"bytes32","internalType":"bytes32"},{"name":"v","type":"uint8","internalType":"uint8"},{"name":"r","type":"bytes32","internalType":"bytes32"},{"name":"s","type":"bytes32","internalType":"bytes32"}],"outputs":[],"stateMutability":"nonpayable"},{"type":"function","name":"hasClaimed","inputs":[{"name":"","type":"address","internalType":"address"}],"outputs":[{"name":"","type":"bool","internalType":"bool"}],"stateMutability":"view"}],"bytecode":{"object":"0x6080604052348015600f57600080fd5b50466001556102c6806100236000396000f3fe608060405234801561001057600080fd5b50600436106100415760003560e01c806309c8d1731461004657806373b2e80e1461005b5780639a8a059214610093575b600080fd5b61005961005436600461021d565b6100aa565b005b61007e610069366004610260565b60006020819052908152604090205460ff1681565b60405190151581526020015b60405180910390f35b61009c60015481565b60405190815260200161008a565b3360009081526020819052604090205460ff16156101015760405162461bcd60e51b815260206004820152600f60248201526e105b1c9958591e4818db185a5b5959608a1b60448201526064015b60405180910390fd5b6040517f19457468657265756d205369676e6564204d6573736167653a0a3332000000006020820152603c8101859052600090605c0160408051601f198184030181528282528051602091820120600080855291840180845281905260ff88169284019290925260608301869052608083018590529092509060019060a0016020604051602081039080840390855afa1580156101a2573d6000803e3d6000fd5b5050604051601f1901519150506001600160a01b03811633146101fb5760405162461bcd60e51b8152602060048201526011602482015270496e76616c6964207369676e617475726560781b60448201526064016100f8565b5050336000908152602081905260409020805460ff1916600117905550505050565b6000806000806080858703121561023357600080fd5b84359350602085013560ff8116811461024b57600080fd5b93969395505050506040820135916060013590565b60006020828403121561027257600080fd5b81356001600160a01b038116811461028957600080fd5b939250505056fea2646970667358221220d946d896c80ff60ca603340e5b65e2dcec57a7a3536e984baccbb72592e3d2cb64736f6c634300081b0033","linkReferences":{}},"methodIdentifiers":{"chainId()":"9a8a0592","claim(bytes32,uint8,bytes32,bytes32)":"09c8d173","hasClaimed(address)":"73b2e80e"},"id":18}