{"abi":[{"type":"constructor","inputs":[{"name":"_owner","type":"address","internalType":"address"}],"stateMutability":"nonpayable"},{"type":"receive","stateMutability":"payable"},{"type":"function","name":"execute","inputs":[{"name":"target","type":"address","internalType":"address"},{"name":"value","type":"uint256","internalType":"uint256"},{"name":"data","type":"bytes","internalType":"bytes"},{"name":"v","type":"uint8","internalType":"uint8"},{"name":"r","type":"bytes32","internalType":"bytes32"},{"name":"s","type":"bytes32","internalType":"bytes32"}],"outputs":[{"name":"","type":"bytes","internalType":"bytes"}],"stateMutability":"payable"},{"type":"function","name":"nonce","inputs":[],"outputs":[{"name":"","type":"uint256","internalType":"uint256"}],"stateMutability":"view"},{"type":"function","name":"owner","inputs":[],"outputs":[{"name":"","type":"address","internalType":"address"}],"stateMutability":"view"}],"bytecode":{"object":"0x6080604052348015600f57600080fd5b506040516104d83803806104d8833981016040819052602c916050565b600080546001600160a01b0319166001600160a01b0392909216919091179055607e565b600060208284031215606157600080fd5b81516001600160a01b0381168114607757600080fd5b9392505050565b61044b8061008d6000396000f3fe6080604052600436106100385760003560e01c80636fc370df146100445780638da5cb5b1461006d578063affed0e0146100a557600080fd5b3661003f57005b600080fd5b610057610052366004610294565b6100c9565b6040516100649190610356565b60405180910390f35b34801561007957600080fd5b5060005461008d906001600160a01b031681565b6040516001600160a01b039091168152602001610064565b3480156100b157600080fd5b506100bb60015481565b604051908152602001610064565b6001805460609160009190826100de836103a4565b91905055898989896040516020016100fa9594939291906103cb565b60408051601f198184030181528282528051602091820120600080855291840180845281905260ff89169284019290925260608301879052608083018690529092509060019060a0016020604051602081039080840390855afa158015610165573d6000803e3d6000fd5b5050604051601f1901516000549092506001600160a01b0380841691161490506101ca5760405162461bcd60e51b8152602060048201526011602482015270496e76616c6964207369676e617475726560781b60448201526064015b60405180910390fd5b6000808b6001600160a01b03168b8b8b6040516101e8929190610405565b60006040518083038185875af1925050503d8060008114610225576040519150601f19603f3d011682016040523d82523d6000602084013e61022a565b606091505b50915091508161026f5760405162461bcd60e51b815260206004820152601060248201526f115e1958dd5d1a5bdb8819985a5b195960821b60448201526064016101c1565b9b9a5050505050505050505050565b803560ff8116811461028f57600080fd5b919050565b600080600080600080600060c0888a0312156102af57600080fd5b87356001600160a01b03811681146102c657600080fd5b965060208801359550604088013567ffffffffffffffff8111156102e957600080fd5b8801601f81018a136102fa57600080fd5b803567ffffffffffffffff81111561031157600080fd5b8a602082840101111561032357600080fd5b602091909101955093506103396060890161027e565b969995985093969295946080840135945060a09093013592915050565b602081526000825180602084015260005b818110156103845760208186018101516040868401015201610367565b506000604082850101526040601f19601f83011684010191505092915050565b6000600182016103c457634e487b7160e01b600052601160045260246000fd5b5060010190565b8581526bffffffffffffffffffffffff198560601b1660208201528360348201528183605483013760009101605401908152949350505050565b818382376000910190815291905056fea26469706673582212207c2a8131d97dff5235f27a5eb43d77861021a775aac9390020fde533c53a3ade64736f6c634300081b0033","linkReferences":{}},"methodIdentifiers":{"execute(address,uint256,bytes,uint8,bytes32,bytes32)":"6fc370df","nonce()":"affed0e0","owner()":"8da5cb5b"},"id":20}